:040000006F40A07934
:10000400000000000000000098470000984700002E
:1000140000000000984700000000000000000000FD
:10002400984700009847000000000000000000000E
:1000340000010000000000009847000000000000DC
:100044009847000098470000984700009847000030
:100054009847000098470000B60B0000984700003E
:10006400984700009847000098470000120C0000D1
:100074009847000098470000984700009847000000
:100084009847000098470000E60B000098470000DE
:10009400C0110000984700009847000098470000EE
:1000A40098470000984700009847000098470000D0
:1000B400984700006003000098470000984700003C
:1000C40098470000984700009847000098470000B0
:1000D400984700005601000004020000B20200002C
:1000E4009847000098470000AA11000098470000B4
:0C00F40098470000984700009847000063
:10010000411122C63AC43EC20008B7F700E0D84306
:10011000B7F700E0799BD8C383A741831387170003
:1001200023AAE18283A7818399C783A78183138749
:10013000F7FF23ACE18283A7C18399C783A7C1835B
:100140001387F7FF23AEE182010032442247924732
:10015000410173002030411122C636C43AC23EC06C
:100160000008B7470140938707809E23C207C183D9
:1001700093F70702A1CB93870189DA2BCD4763EF71
:10018000E702B747014093870780DE2313970701F3
:10019000418393870189DE2BBE861377F70F938700
:1001A0000189B69798A393870189DE2B850713975A
:1001B0000701418393870189DAAB29A093870189DD
:1001C000239A0700B7470140938707809E23C20701
:1001D000C183C18B85C3B747014093870780DE2366
:1001E00093870189DA2B93870189FAAB9387018979
:1001F000239A070001003244A24612478247410178
:1002000073002030411122C636C43AC23EC00008F5
:10021000B7470040938707409E23C207C18393F7E7
:100220000702A1CB9387818ADA2BCD4763EFE702E0
:10023000B747004093870740DE23139707014183A8
:100240009387818ADE2BBE861377F70F9387818A87
:10025000B69798A39387818ADE2B850713970701AA
:1002600041839387818ADAAB29A09387818A239A75
:100270000700B7470040938707409E23C207C1830A
:10028000C18B85C3B747004093870740DE23938720
:10029000818ADA2B9387818AFAAB9387818A239AA2
:1002A000070001003244A246124782474101730011
:1002B0002030411122C636C43AC23EC00008B757AA
:1002C0000040938707809E23C207C18393F70702EC
:1002D000A1CB9387018CDA2BCD4763EFE702B757A9
:1002E000004093870780DE2313970701418393879C
:1002F000018CDE2BBE861377F70F9387018CB697A0
:1003000098A39387018CDE2B850713970701418300
:100310009387018CDAAB29A09387018C239A07007D
:10032000B7570040938707809E23C207C183C18BC4
:1003300085C3B757004093870780DE239387018CDE
:10034000DA2B9387018CFAAB9387018C239A0700F1
:1003500001003244A2461247824741017300203017
:10036000411122C63AC43EC20008B7070040938735
:1003700007409E2BC207C183858B8DC3B707004002
:10038000938707409E2B139707014183B7070040CF
:1003900093870740799B420741839AAB010032441F
:1003A00022479247410173002030011122CE0010F4
:1003B0002326A4FEAE87A305F4FE0347B4FE9D47A3
:1003C00063F5E7009D47A305F4FEB7E600E0834729
:1003D000B4FE960713F7F70F8327C4FEB697238062
:1003E000E7400100724405618280411122C6000885
:1003F000B7170240984FB71702401367470098CFCE
:10040000B7170240984FB71702401367170098CFED
:10041000B7070140D443B7070140370700F97D17FC
:10042000758FD8C3B717014093870780596798CF56
:10043000B717014093870780196798CFB717014016
:1004400093870780596798CFB71701409387078034
:100450009C4F0100324441018280411122C60008B4
:10046000B71702409843B71702401367170098C3A5
:100470000100B71702409C43898BE5DFB7170240A4
:100480009443B71702403707FCFF7D17758F98C359
:10049000B71702409443B71702404167558F98C37E
:1004A0000100B71702409843B7070200F98FF5DB48
:1004B000B71702409443B717024037070800558F1B
:1004C00098C3B7170240DC4313F7C7FFB7170240C2
:1004D00013671700D8C3B71702409443B7170240F9
:1004E000370700FF7D17758F98C3B7170240DC43AD
:1004F00013F7F7F0B717024013670708D8C3B727F9
:100500000240944BB7270240370700FE7D17758FD6
:1005100098CBB7170240DC4313F7F78FB7170240A9
:1005200013670740D8C3B7170240D443B717024038
:1005300071771307F77F758FD8C3B7170240D84379
:10054000D177FD17B376F700B71702402167558FB3
:10055000D8C3B7170240D443B717024001777D17BD
:10056000758FD8C3B7170240D443B717024041670D
:10057000558FD8C3B7170240D443B7170240370787
:100580003C00558FD8C3B7170240D843B70740FF88
:10059000FD17B376F700B717024037078000558F75
:1005A000D8C3B7170240D843B70700F9FD17B37691
:1005B000F700B717024037070006558FD8C3B717A3
:1005C00002409443B717024037070001558F98C384
:1005D000B7170240DC4313F7C7FFB7170240136792
:1005E0002700D8C30100B71702409843B70700029D
:1005F000F98FF5DB010001003244410182800111D5
:1006000006CE22CC0010B7F700E09843B7F700E021
:10061000799B98C3B7F700E09843B7F700E01367FA
:10062000270098C3B7F700E09843B7F700E06D9B49
:1006300098C3B7F700E09843B7F700E01367870067
:1006400098C3B7F700E09843B7F700E013670701D6
:1006500098C3B7F700E09843B7F700E013670702C5
:1006600098C3B7F600E0096713077732814798CA45
:10067000DCCAB1472326F4FE8327C4FEFD8B054761
:10068000B316F70037E700E08327C4FE958393870E
:1006900007048A07BA9794C301009D453145313359
:1006A000B7F700E09843B7F700E01367170098C367
:1006B0000100F240624405618280011122CE0010E7
:1006C0002326A4FE0327C4FE23ACE182010083A7F6
:1006D0008183F5FF01000100724405618280797118
:1006E00022D60018232EA4FCAE873687A30DF4FC77
:1006F000B287230DF4FCBA87A30CF4FCA30704FE15
:100700008347A4FD89C70547638EE702A5A88347F1
:10071000B4FD8A07A307F4FE8327C4FD98438347EB
:10072000F4FE8D46B397F60093C7F7FFF98F834623
:1007300094FD0347F4FE3397E6005D8F8327C4FDE5
:1007400098C389A08347B4FDE117A30DF4FC834748
:10075000B4FD8A07A307F4FE8327C4FDD84383476B
:10076000F4FE8D46B397F60093C7F7FFF98F8346E3
:1007700094FD0347F4FE3397E6005D8F8327C4FDA5
:10078000D8C301000100325445618280797106D6D8
:1007900022D40018232EA4FCAE873287A30DF4FCCC
:1007A000BA87230DF4FCA30704FE0347B4FD9D475D
:1007B00063E5E700A30704FE21A08547A307F4FE35
:1007C0008347A4FD81EF0347F4FE8347B4FD8146D0
:1007D0003A86BE850325C4FD193785A00347A4FDCD
:1007E0008547631DF7000347F4FE8347B4FD854644
:1007F0003A86BE850325C4FDDD3581A00347A4FDEF
:100800008947631DF7000347F4FE8347B4FD89461B
:100810003A86BE850325C4FDD93505A00347A4FD4E
:100820008D47631CF7000347F4FE8347B4FD8D46F4
:100830003A86BE850325C4FD5D350100B2502254C1
:1008400045618280011122CE00102326A4FEAE87CE
:1008500032872322D4FEA305F4FEBA872305F4FED3
:100860008347B4FE89C70547638DE7029DA08327B0
:10087000C4FE9843832744FE9C23BE868D47B397CE
:10088000D70093C7F7FFF98F0347A4FE832644FEE2
:1008900094223317D7005D8F8327C4FE98C30100CD
:1008A0000DA88327C4FED843832744FE9C23BE861D
:1008B0008D47B397D70093C7F7FFF98F0347A4FE7F
:1008C000832644FE94223317D7005D8F8327C4FE0E
:1008D000D8C30100724405618280011106CE22CC8A
:1008E00000102326A4FE2324B4FE2320F4FEB287A6
:1008F000A303F4FEB6872303F4FEBA87A302F4FE33
:10090000834774FE09476386E70809476343F71482
:1009100089C705476381E7042DAA834764FE89C719
:100920000547638EE70035A2032704FE834754FE84
:10093000BA860146BE850325C4FE293721A80327B0
:1009400004FE834754FEBA860546BE850325C4FED1
:10095000D53D0100FDA8834764FE89C70547638E26
:10096000E700C5A8032704FE834754FEBA8609465C
:10097000BE850325C4FEF93521A8032704FE83475D
:1009800054FEBA860D46BE850325C4FE653D0100B2
:10099000C9A0834764FE15476383E7081547634989
:1009A000F70A11476382E70411476343F70A0947CF
:1009B0006386E7000D47638EE70059A8032704FE0E
:1009C000834754FEBA860146BE850325C4FE9D3D7D
:1009D00041A0032704FE834754FEBA860546BE8520
:1009E0000325C4FE8535ADA0032704FE834754FECE
:1009F000BA860946BE850325C4FEA9358327C4FEF1
:100A0000D847832784FE9C23BE868547B397D700AB
:100A100093C7F7FF7D8F8327C4FED8C715A8032788
:100A200004FE834754FEBA860946BE850325C4FEEC
:100A3000113D8327C4FED847832784FE9C23BE86AE
:100A40008547B397D7005D8F8327C4FED8C70100C1
:100A500001000100F240624405618280797106D68E
:100A600022D40018232EA4FCAE87A30DF4FCB28779
:100A7000230DF4FCB687A30CF4FCBA87230CF4FC1A
:100A8000A30704FE0327C4FDB7170140938707801F
:100A9000631BF700B7170240984FB7170240136760
:100AA000470098CF51A00327C4FDB7170140938793
:100AB00007C0631BF700B7170240984FB7170240F3
:100AC0001367870098CF8DA00327C4FDB717014097
:100AD000631BF700B7170240984FB7170240136720
:100AE000070198CF91A00327C4FDB7170140938752
:100AF0000740631BF700B7170240984FB717024033
:100B00001367070298CF0DA00327C4FDB727014044
:100B100093870780631AF700B7170240984FB717FB
:100B200002401367070498CF8347B4FD034784FD51
:100B30003A86BE850325C4FD91390347B4FD9D4720
:100B400063E9E7028347B4FD8A0793F7F70F890744
:100B500093F7F70FA307F4FE9307F4FE834694FD83
:100B60000346A4FD9305B4FD01470325C4FDB53339
:100B700035A88347B4FDE11793F7F70FA30DF4FCF5
:100B80008347B4FD8A0793F7F70F890793F7F70FA9
:100B9000A307F4FE9307F4FE834694FD0346A4FDE9
:100BA0009305B4FD05470325C4FD053B0100B25084
:100BB000225445618280411122C63AC43EC20008D7
:100BC000B707014093870740D84BB7070140938789
:100BD000074013671700D8CB0100324422479247E1
:100BE000410173002030411122C63EC40008B727DE
:100BF0000140938707409C43898B91C7B7270140E9
:100C000093870740DC5F01003244A2474101730033
:100C10002030411122C63AC43EC20008B707024044
:100C20009C43898B91CBB7070240D843B70702405A
:100C300013671700D8C331A8B70702409C43A18BA4
:100C400089CBB7070240D843B707024013671700A4
:100C5000D8C301003244224792474101730020303B
:100C6000011106CE22CC0010EFF02FF8EFF0EFFECE
:100C700079320D47814601468545B71701401385F6
:100C800007C0E93B01478D4609468145B71701403A
:100C900013850780E13301478D4609468545B7171F
:100CA0000140138507805D3B01478D460946894514
:100CB000B717014013850780553301478D46094614
:100CC0008D45B717014013850780493B2123EF105D
:100CD00070438D23938701842380070093870184C9
:100CE000A3800700938701842381070093870184F1
:100CF000A3810700938701842382070093870184DF
:100D0000A3820700938701842383070093870184CC
:100D1000A383070003A7018895476313F714B71748
:100D20000140938707809C47A18B91EB93870184B7
:100D300023800700938701841947B8A309A89387E4
:100D40000184238007009387018423810700B7175C
:100D50000140938707809C47918B91EB9387018497
:100D600023800700938701845D47B8B309A8938760
:100D700001842380070093870184A3810700B717AC
:100D80000140938707809C47898B91EB938701846F
:100D900023800700938701843147D8A309A893874C
:100DA0000184238007009387018423820700B717FB
:100DB0000140938707809C47858B91EB9387018443
:100DC00023800700938701844D47D8B309A89387F0
:100DD00001842380070093870184A3820700B7174B
:100DE0000140938707809C47A307F4FE0347F4FE66
:100DF000B94763E9E700B7170140938707C0094780
:100E000098CB81A89387018423800700938701846E
:100E1000A3800700938701842381070093870184BF
:100E2000A3810700938701842382070093870184AD
:100E3000A38207009387018423830700938701849B
:100E4000A3830700B7170140938707C03707020045
:100E500098CB2146938501840945EF10B0245DBDF0
:100E6000B7170140938707C0094798CB1305401F68
:100E7000EFF0BF84B7170140938707C03707020020
:100E800098CB1305401FEFF05F83B707002083C79F
:100E9000872389CFB707002083C78723FD1713F760
:100EA000F70FB7070020238CE722ADB5B7E700E0C6
:100EB0003707EFBE13070708B8C70100A1BD797156
:100EC00022D60018232EA4FC232604FEB7070140D7
:100ED000938707402326F4FE8327C4FDDC47638005
:100EE0000712B70701409387074094438327C4FD47
:100EF0009C4313C7F7FFB707014093870740758FDF
:100F000098C3B707014093870740D4438327C4FDA4
:100F10009C4313C7F7FFB707014093870740758FBE
:100F2000D8C38327C4FDDC430327C4FEBA97232616
:100F3000F4FE8327C4FE94438327C4FD984383278C
:100F4000C4FE558F98C3B707014093870740944765
:100F50008327C4FD9C4313C7F7FFB707014093875E
:100F60000740758F98C7B707014093870740D4475C
:100F70008327C4FD9C4313C7F7FFB707014093873E
:100F80000740758FD8C78327C4FD9847C147631FA3
:100F9000F702B70701409387074094478327C4FDB2
:100FA0009843B707014093870740558F98C7B70705
:100FB000014093870740D4478327C4FD9843B70770
:100FC000014093870740558FD8C7B1A8B7070140A4
:100FD000938707402326F4FE8327C4FD9C470327FD
:100FE000C4FEBA972326F4FE8327C4FE94438327C6
:100FF000C4FD98438327C4FE558F98C32DA0832733
:10100000C4FDDC430327C4FEBA972326F4FE8327DE
:10101000C4FE94438327C4FD9C4313C7F7FF832773
:10102000C4FE758F98C3010032544561828001115E
:1010300022CE00102326A4FEB70701409387074065
:101040000327C4FED8CB01007244056182800111E0
:1010500022CE00102326A4FEAE87A305F4FE03478C
:10106000B4FE9D4763F5E7009D47A305F4FEB7E690
:1010700000E08347B4FE960713F7F70F8327C4FEFB
:10108000B6972380E7400100724405618280797140
:1010900006D622D40018232EA4FC03A781848547FA
:1010A000631DF7048327C4FD983385476316F70251
:1010B0008327C4FD9C233E878327C4FDBC2396075A
:1010C000E207E18793E707F8E207E18793F7F70F75
:1010D000BE853A85AD3F15A08327C4FD9C3391EFB3
:1010E0008327C4FD9C233E878327C4FDBC2396072A
:1010F00093F7F70FBE853A85993F8327C4FDDC43FC
:101100009DC78327C4FD9C232326F4FE8327C4FEAA
:10111000FD8B0547B316F70037E700E08327C4FED1
:101120009583938707048A07BA9794C33DA08327C2
:10113000C4FD9C232324F4FE832784FEFD8B0547F6
:10114000B316F70037E700E0832784FE9583938783
:1011500007068A07BA9794C301000100B2502254CF
:1011600045618280011122CE00102326A4FE232493
:10117000B4FE832784FE99CBB7170240944FB7176C
:1011800002400327C4FE558F98CF21A8B71702400D
:10119000944F8327C4FE13C7F7FFB7170240758F1C
:1011A00098CF0100724405618280411122C6000877
:1011B00037050400AD3D0100324441017300203089
:1011C000411122C60008EF101063010032444101B2
:1011D00073002030411122C60008B7170240D44FD7
:1011E000B717024037078000558FD8CF010032442F
:1011F00041018280411122C600080D4723A0E188E9
:101200000100324441018280011122CE00109387F7
:1012100081912326F4FE8327C4FEBC2789C7154786
:1012200023A0E18821A0054723A0E18801007244A2
:1012300005618280797106D622D400183705040032
:10124000FD33B7070400232CF4FC232E04FCC14714
:101250002320F4FE85472322F4FE930784FD3E8578
:10126000B939930740022304F4FE8547A304F4FE32
:10127000230504FE85472326F4FE930784FE3E855E
:1012800039359307A0032304F4FEA30404FE930757
:1012900084FE3E85ED3B0100B250225445618280C0
:1012A000011106CE22CC00102326A4FE2324B4FE76
:1012B00085451145453D8327C4FEADCBB76700404A
:1012C000938707C49C43C207C1833E87B76700402A
:1012D000938707C4759B98C3B7170140938707800E
:1012E000D443B7170140938707803717F0FF7D1766
:1012F000758FD8C3B717014093870780D447B717B6
:1013000001409387078079771307F77F758FD8C7D8
:10131000B717014093870780D443B71701409387DD
:10132000078037470400558FD8C39DA8B767004092
:10133000938707C49C43C207C18393E72700139791
:1013400007014183B7670040938707C498C3B71765
:10135000014093870780D443B717014093870780E4
:101360003717F0FF7D17758FD8C3B71701409387E4
:101370000780D447B7170140938707807977130711
:10138000F77F758FD8C7B717014093870780D4437D
:10139000B71701409387078037370300558FD8C3AD
:1013A000832784FE91CFB7470240938707809843F5
:1013B000B7470240938707801367270098C321A887
:1013C000B7470240938707809843B7470240938707
:1013D0000780759B98C30100F240624405618280DA
:1013E000011106CE22CC0010AA872317F4FE8357E2
:1013F000E4FE99E783A7418505479AAB814701A899
:1014000083A701869C43829783A74185A9073E85D0
:10141000F240624405618280411106C622C4000880
:1014200083A74185B833B70700209387C7239C3330
:1014300063E6E70283A74185BC238DE383A741854B
:10144000DE2389EF03A7418583A741853833B8A7F9
:1014500083A70186DC438297814711A089473E8597
:10146000B240224441018280011106CE22CC0010FC
:10147000AA872317F4FE8357E4FE99E783A74185E3
:1014800005479AAB814701A883A701869C478297AD
:1014900083A74185B1073E85F240624405618280A1
:1014A000011106CE22CC001083A781859C4F03A793
:1014B0004185543303A741853833BA8536858297F1
:1014C0002326A4FE83A74185BC27B9C38327C4FE76
:1014D00089EB83A74185DC2389E783A74185BC236A
:1014E00099C389473DA08327C4FE9DE383A7018656
:1014F000DC47829703A7418583A741855833B8B756
:1015000003A7418583A741853833D8A7814711A018
:1015100089473E85F240624405618280797106D632
:1015200022D40018AA87231FF4FC8357E4FD99E70F
:1015300083A7418509479AAB81473DA22396018441
:1015400083A741859C2393F7F707ADE383A74185E4
:101550009C37A306F4FE8347D4FE93F7070291CB92
:1015600083C7C18493E7270013F7F70F2386E1842D
:1015700001A883C7C184F59B13F7F70F2386E18485
:101580008347D4FE93F7070491CB83C7C18493E7C5
:10159000170013F7F70F2386E184C9A083C7C1841E
:1015A000F99B13F7F70F2386E1844DA883A74185A4
:1015B0009C2313F7F70785476315F7009387C184CA
:1015C00065A083A741859C2313F7F7078947631517
:1015D000F70883A74185DC33A307F4FE8347F4FEB5
:1015E000BD8B2307F4FE8307F4FE63DC0702834709
:1015F000E4FE13972700B7670040938707C0BA97A8
:101600009C43C207C18313F70703C1476318F7045C
:1016100083C7C18493E7170013F7F70F2386E1848C
:1016200035A88347E4FE13972700B76700409387E8
:1016300007C0BA979C43C207C1833E878D677D8FE1
:101640008567631DF70083C7C18493E7170013F70D
:10165000F70F2386E18419A0814739A083A701866B
:101660009C4B82979387C1843E85B250225445613A
:101670008280797106D622D4001883A741859C23E5
:1016800093F7F7072324F4FE832784FE89EF83A7CB
:101690004185983783A741851377F7FD1377F70FB7
:1016A00098B78147C5A4032784FE8947631BF72C9D
:1016B00083A74185BE2389E783A74185DC2399C39E
:1016C0008947C9A4B70700209387C7232322F4FEC4
:1016D00083A74185DC332320F4FE832704FE93F7A0
:1016E000F7F7232EF4FC8327C4FD232CF4FC83A7F7
:1016F0004185DC33E207E18763D30702832784FD5A
:1017000013972700B7670040938707C0BA979C4399
:10171000C207C18393F707032326F4FE15A083278E
:1017200084FD13972700B7670040938707C0BA97D7
:101730009C43C207C1833E878D67F98F2326F4FE41
:10174000832744FE9C233E878327C4FD63F9E7007B
:101750008327C4FE89C783A74185BC2799E38947AE
:1017600015A4832704FE93F70708B9C3832784FDD4
:1017700013972700B7670040938707C0BA979C4329
:10178000C207C18313F70703C1476316F71E8327F8
:1017900084FD93F7F70F3E85EF20703B832784FD90
:1017A00093F7F70F930500033E85EF203003E1A286
:1017B000832784FD13972700B7670040938707C0EE
:1017C000BA979C43C207C1833E878D677D8F85672B
:1017D0006313F71A832784FDE1EF832784FD13F752
:1017E000F70FB70700209387071C83C7C702BE8582
:1017F0003A85EF20F052832784FD13972700B767BF
:101800000040938707C0BA979C4313970701418311
:10181000F1779387F7F8F98F9390070193D0000140
:101820008567B3C7F0009390070193D000018967E3
:10183000B3C7F0009390070193D00001E17793873D
:101840000708B3E7F00093960701C182832784FD60
:1018500013972700B7670040938707C0BA9736876A
:1018600098C325A0E17793870708B3E7F000939624
:101870000701C182832784FD13972700B7670040C3
:10188000938707C0BA97368798C3832784FD139739
:101890002700B7670040938707C0BA979C43C207E9
:1018A000C1833E878D677D8F8D67E31DF7FAE1A0C9
:1018B000832784FD93F7F70F3E85EF20F0218327E0
:1018C00084FD13972700B7670040938707C0BA9736
:1018D0009C43139707014183F1779387F7F8F98FBA
:1018E0009390070193D000018567B3C7F0009390F0
:1018F000070193D000018967B3C7F00093900701F7
:1019000093D00001E17793870708B3E7F00093963F
:101910000701C182832784FD13972700B767004022
:10192000938707C0BA97368798C325A0E177938736
:101930000708B3E7F00093960701C182832784FD6F
:1019400013972700B7670040938707C0BA97368779
:1019500098C3832784FD13972700B76700409387B8
:1019600007C0BA979C43C207C1833E878D677D8FAE
:101970008D67E31DF7FA83A70186DC4B82978147C9
:1019800011A089473E85B2502254456182800111E1
:1019900006CE22CC001083A74185DC332324F4FE3D
:1019A000832784FE93F7F7F72322F4FE832744FE70
:1019B0002320F4FE83A74185DC33E207E18763D36C
:1019C0000702832704FE13972700B7670040938719
:1019D00007C0BA979C43C207C18393F70703232626
:1019E000F4FE15A0832704FE13972700B767004075
:1019F000938707C0BA979C43C207C1833E878D6710
:101A0000F98F2326F4FEB707002083C7C7233E873C
:101A1000832704FE63FDE70083A74185BE2381EB96
:101A20008327C4FE89C783A74185BC2799E38947DB
:101A3000A5A2832784FE93F70708CDC7832704FE5A
:101A400013972700B7670040938707C0BA979C4356
:101A5000139707014183E5779387F7FBF98F9390FD
:101A6000070193D0000193C700019390070193D021
:101A70000001E17793870708B3E7F0009396070129
:101A8000C182832704FE13972700B767004093871E
:101A900007C0BA97368798C325A0E17793870708D0
:101AA000B3E7F00093960701C182832704FE1397E2
:101AB0002700B7670040938707C0BA97368798C357
:101AC000832704FE13972700B7670040938707C05A
:101AD000BA979C43C207C18313F70703C147E31EAC
:101AE000F7FA75A0832704FE13972700B767004015
:101AF000938707C0BA979C43139707014183F177F7
:101B00009387F7F8F98F9390070193D000018567C9
:101B1000B3C7F0009390070193D00001E17793875A
:101B20000708B3E7F00093960701C182832704FEFC
:101B300013972700B7670040938707C0BA97368787
:101B400098C325A0E17793870708B3E7F000939641
:101B50000701C182832704FE13972700B76700405F
:101B6000938707C0BA97368798C3832704FE1397D5
:101B70002700B7670040938707C0BA979C43C20706
:101B8000C1833E878D677D8F8567E31DF7FA83A745
:101B900001869C4F829781473E85F24062440561F1
:101BA0008280411106C622C4000883A74185983768
:101BB00083A74185136707021377F70F98B783A7A9
:101BC0000186DC4F829781473E85B2402244410125
:101BD0008280797122D60018AA87232CB4FC231F97
:101BE000F4FC83A74185BE2B2326F4FE8357E4FD36
:101BF00095E3832784FDD6238327C4FE139707012B
:101C0000418383A741853387E640420741839AABEE
:101C1000814739A0832784FD98438327C4FEBA9760
:101C20003E85325445618280011106CE22CC0010DF
:101C300083A74185C1072324F4FE832784FE9E23C6
:101C40002322F4FE832784FE9C47D1CB832744FEC6
:101C5000D9C7832784FEDE232326F4FE0327C4FE90
:101C6000832744FE63F6E700832744FE2326F4FE21
:101C7000832784FE9C470327C4FE420741833A859D
:101C800082972320A4FE832784FE9A238327C4FE01
:101C9000C207C183B307F740139707014183832726
:101CA00084FE9AA3832784FEBA238327C4FEC20737
:101CB000C183BA97139707014183832784FEBAA390
:101CC0000145EF20C07DAA873E878327C4FEC20757
:101CD000C1833E86BA85032504FEEF10A06D8327DD
:101CE00084FE9E2381CF0D672392E18681450145C5
:101CF000EF20A07E130700032393E186832784FE51
:101D00009A23832784FEDE236367F70083A7418538
:101D10000D4798A7A9A0832784FE9E2391C783A778
:101D20004185154798A725A8832784FE9E2385EB28
:101D300083A74185194798A7B7670040938707C5D0
:101D40009C43C207C1833E87B73700208907BA97F3
:101D5000860723A00700130700032393E1860100F1
:101D6000F240624405618280797106D622D400185F
:101D700083A74185C1072322F4FE832744FE9E23C7
:101D80002320F4FE83A741859C272326F4FE832786
:101D900004FEA9EB0327C4FE91476315F70483C72C
:101DA000E18495CBB7670040938707C59C43C20782
:101DB000C1833E87B73700208907BA97860723A0DB
:101DC0000700130700032393E18691472326F4FEBF
:101DD00023870184C1A89D472326F4FE414723930E
:101DE000E186C9A0832744FEDE232324F4FE0327D3
:101DF00004FE832784FE63E4E700914711A089472E
:101E00002326F4FE032784FE832704FE63F6E700FF
:101E1000832704FE2324F4FE832744FE9C470327E4
:101E200084FE420741833A858297232EA4FC014514
:101E3000EF204063AA873E87832784FEC207C183C1
:101E40003E86BA850325C4FDEF10404C832784FEEF
:101E5000C207C183BE850145EF202068832744FE69
:101E60009A23832784FEC207C183B307F7401397E1
:101E700007014183832744FE9AA3832744FEBA23A4
:101E8000832784FEC207C183BA9713970701418352
:101E9000832744FEBAA3130700032393E1860D674B
:101EA0002392E18683A741850327C4FE1377F70FAA
:101EB00098A70100B250225445618280011106CEDC
:101EC00022CC001089472326F4FE83A741859C334A
:101ED0002322F4FE83A741859C2393F7F707DDEFC8
:101EE000032744FEA5476317F700EFF0EFD2232640
:101EF000A4FE31A2032744FE9547631CF70283A783
:101F00004185BC33E207E18763CE070083A74185A3
:101F1000BC2389EB83A74185DE2389E783A741851D
:101F2000BC2789C7A1472324F4FE35AA232604FE33
:101F3000F9A0032744FE8D476314F70283A7418568
:101F4000B8338547631AF70083A74185DE2389E705
:101F500089392326A4FE65A089472326F4FE45A0DF
:101F6000032744FE8547631CF70883A74185B833E0
:101F700085476311F70283A74185DE2381EF83A79D
:101F800041859C3793F7070291C7EFF08FEE232628
:101F9000A4FEB5A089472326F4FE95A083A741851A
:101FA0009C2313F7F7078547631CF700032744FEBC
:101FB000AD476316F704EFF0AFCE2326A4FE81A051
:101FC00083A741859C2313F7F70789476316F70218
:101FD000032744FE85476317F700EFF08FE92326B8
:101FE000A4FE31A8032744FE8D47631AF700EFF0E3
:101FF0001F9A2326A4FE21A089472326F4FE8327C7
:10200000C4FE8DC783A78185DC4B032744FE13776D
:10201000F70F3A8582972326A4FE0327C4FE8D4737
:102020006316F700A5472324F4FE35A88327C4FED2
:1020300089C7A1472324F4FE3DA099472324F4FE39
:10204000B7670040938707C59C43C207C1833E879B
:10205000B73700208907BA97860723A00700130720
:1020600000032393E18683A74185032784FE13772A
:10207000F70F98A70100F240624405618280397130
:1020800006DE22DC800083A741859C332320F4FEFA
:10209000232604FE232E04FC032704FE9947631F16
:1020A000F70483A741859C2393F7F70763900720E4
:1020B00083A74185BC23A309F4FC034734FD85476E
:1020C0006318F70083A78185DC4F2326F4FEF9AA65
:1020D000034734FD89476318F70083A781859C5324
:1020E0002326F4FEE1A2034734FD8D476310F71C5D
:1020F00083A78185DC532326F4FE4DAA832704FEA3
:102100006394071283A74185BE23639F071083A7AB
:102110004185FA2389476319F71083A74185DC239A
:102120006394071083A741859C2393F7F70799EBE6
:1021300083A74185DE2399E785679387C7512326C7
:10214000F4FEA5A283A741859C2313F7F7078547D3
:102150006319F70283A781859C4F03A741855833F4
:1021600081453A858297AA876391071483A74185A1
:10217000BC27638C071285679387C7512326F4FE1B
:102180002DA283A741859C2313F7F7078947631E78
:10219000F71083A74185DC33BD8B232CF4FC83A788
:1021A0004185DC3393F70707232AF4FC83A7418595
:1021B000DC33E207E18763D30702832784FD1397AB
:1021C0002700B7670040938707C0BA979C43C207B0
:1021D000C18393F707032322F4FE15A0832784FD10
:1021E00013972700B7670040938707C0BA979C43AF
:1021F000C207C1833E878D67F98F2322F4FEB7079C
:10220000002083C7C7233E87832784FD63FFE70839
:10221000832744FDD9EB832744FEC1CB8567938791
:10222000C7512326F4FE51A0032704FEA147631ED5
:10223000F70083A741859C2393F7F707A5EB8567F4
:102240009387073E2326F4FE95A0032704FEA947A3
:10225000631EF70483A741859C2313F7F70785477F
:102260006316F70483A74185BC27A9C383A74185CB
:10227000BE238DEF83A74185DC238DEB83A74185AA
:10228000FA2385476314F70283A781859C4F03A730
:102290004185583381453A858297AA8781EB8567C6
:1022A000938787462326F4FE11A001008327C4FEEE
:1022B00085C783A741850327C4FD42074183BAAB85
:1022C00083A741850327C4FE98CF8327C4FE014519
:1022D0008297232404FE2DA083A781859C4B03A70E
:1022E000418518333A8582972324A4FE032784FE70
:1022F0008D476317F70083A74185254798A7D9A87D
:1023000083A741859A2BC167FD176317F70083A741
:102310004185254798A77DA8032784FE8947630642
:10232000F70083A741859E2B91E783A7418521472D
:1023300098A74DA083A741859C23E207E18763D33B
:10234000070883A74185FE232326F4FC83A7418544
:102350009E2B3E878327C4FC63FAE7000327C4FC57
:1023600083A74185420741839AAB99A083A7418502
:102370009A2B83A74185FE23637CF70283A74185BF
:102380009E2B03A781850347C70263F5E7002387D8
:10239000018439A883A741859E2B3E8783A7818529
:1023A00083C7C702B367F70281E705472387E18444
:1023B00083A7818503C7C70283A74185DAABEFF006
:1023C000BF9A01A883A741850D4798A70D6723925F
:1023D000E1860100F250625421618280011106CE33
:1023E00022CC26CA001085472317F4FEB7670040A9
:1023F000938707C59C43C207C1833E87B737002038
:102400009107BA9786079C43C207C18386073E8718
:10241000B7670040BA972324F4FE83A74185982725
:10242000A5476300F70A832784FE13871700232438
:10243000E4FE03A741859C231CA3832784FE138706
:1024400017002324E4FE03A741859C231CB3032724
:1024500084FE8357E4FE8607BA972324F4FE83277D
:1024600084FE138727002324E4FE9A2383A4418556
:102470003A85EF206024AA87BEA0032784FE8357F5
:10248000E4FE8607BA972324F4FE832784FE13878D
:1024900027002324E4FE9A2383A441853A85EF2074
:1024A000A021AA87DEA0032784FE8357E4FE8607C7
:1024B000BA972324F4FE032784FE83A741851A23B9
:1024C000FAA383A74185054798A783A74185FE23E3
:1024D00081E7EFF0BF9E19A0EFF07FBA2D2AAA87FF
:1024E0003E85F2406244D24405618280011106CEED
:1024F00022CC001083A741859C272326F4FE0327C6
:10250000C4FE89476307F7000327C4FE9147631A97
:10251000F700EFF07F8583A741859C272326F4FEF3
:10252000B1A00327C4FE9947631FF70283A7418523
:10253000983395476311F70283A741859C2393F74E
:10254000F70791EB83A74185BC333E85212A83A7FA
:1025500001869C53829783A781859C478297A147D8
:102560002326F4FE21A0A1472326F4FE83A741855C
:102570000327C4FE1377F70F98A77128AA873E8513
:10258000F240624405618280011106CE22CC001027
:1025900083A741859C272326F4FE0327C4FE894791
:1025A0006307F7000327C4FE91476316F700A147AE
:1025B0002326F4FE99A00327C4FE8D476307F70086
:1025C0000327C4FE9547631AF700EFF0EFE583A7F2
:1025D00041859C272326F4FE0DA00327C4FE9D47BA
:1025E000631AF70083A78185DC478297A1472326DA
:1025F000F4FE21A0A1472326F4FE83A741850327EB
:10260000C4FE1377F70F98A73920AA873E85F240BA
:10261000624405618280411106C622C40008B707E2
:1026200000209387071C83C7C702BE850145EF10B2
:10263000306F83A741859827A1476318F700056786
:102640002392E18641472393E18683A741859C2716
:10265000DD1793B7170093F7F70F3E85B24022447A
:1026600041018280797122D60018AA87A30FF4FC59
:10267000B707002083C7C7232324F4FE232604FEC4
:1026800085A08327C4FE93F7F70F13972700B7673A
:102690000040938707C0BA979C43C207C1833E8717
:1026A00085679387F7F07D8FA16793870708D98F98
:1026B0000327C4FE1377F70FB3E6E7008327C4FEB2
:1026C00093F7F70F13972700B7670040938707C06A
:1026D000BA97368798C38327C4FE85072326F4FE5E
:1026E0000327C4FE832784FEE36DF7F88347F4FDD8
:1026F00093E707F813F7F70FB76700409387C7C44E
:1027000098C30100325445618280411122C60008FD
:102710000100324441018280797106D622D400182A
:10272000232EA4FC232CB4FCB287A30BF4FC2307B8
:1027300004FE0325C4FDEF20600EAA872307F4FEE4
:102740008347E4FE850793F7F70F860713F7F70F24
:10275000832784FD98A3832784FD8507034774FDA1
:1027600098A3A30704FE35A88347F4FE0327C4FDFE
:102770003E978347F4FE85078607BE86832784FD40
:10278000B697182398A38347F4FE86078D0703277F
:1027900084FDBA97238007008347F4FE8507A307CB
:1027A000F4FE0347F4FE8347E4FEE36FF7FA832762
:1027B00084FD9C233E85B2502254456182804111A4
:1027C00006C622C426C24AC00008938741939C23B0
:1027D00093F7F70F13976700B70700209387073821
:1027E000B304F7000545EF10904BAA873E890545D5
:1027F000EF105068AA873E86CA852685EF00903B79
:10280000938741939C2393F7F70F3E8793874193D8
:10281000BA9713070004B8B3938741939C2393F7A7
:10282000F70F850713F7F70F9387419398A39387C3
:1028300041939C2313F7F70FC1476316F700938763
:1028400041932380070093874193BC2393F7F70FAD
:10285000850713F7F70F93874193B8A393874193A5
:10286000BC2313F7F70FAD4763FBE7008965054508
:10287000EF103005938741930547B8BB21A005456C
:10288000EF1010130100B24022449244024941016A
:102890008280411122C60008A387018401003244CE
:1028A00041018280011106CE22CC0010AA87232488
:1028B000B4FE3287A307F4FEBA872316F4FE03475B
:1028C000F4FE8947631AF70283C7F18499C38547E9
:1028D0002DA08357C4FE3E86832584FE1305200861
:1028E000EF1010650547A387E184930500030945B0
:1028F000EF10C06E814711A085473E85F2406244CB
:1029000005618280411106C622C400080D46B70742
:10291000002093850708B707002013850700ED3BCB
:10292000AA873E87B707002093874721DAA70D467D
:10293000B707002093854710B707002013850704C9
:10294000E13BAA873E87B707002093874721DAAB90
:102950001387819123AAE18483A74185094798A71A
:10296000370700201307071C23ACE184370700203A
:102970001307071F23A0E18683A781859C438297C5
:102980000100B240224441018280011106CE22CCD6
:1029900026CA4AC80010231704FE1DAD83D7A1869E
:1029A000C207C18393F7F70FBD8B13F7F70F238887
:1029B000E18483C7018563940754B7670040938718
:1029C00007C09C431397070141832392E18683D775
:1029D0004186C207C18393F7070313970701418319
:1029E0002393E18683D741861397070141838D673F
:1029F000F98F1397070141832392E186B76700405F
:102A0000938707C09C43C207C1833E87A56793870E
:102A1000F7FB3379F700B7670040938707C09C4303
:102A2000C207C1833E87B1679387F7F8B374F70095
:102A30008967BD8C1349090293170901C183B3E665
:102A4000F400B7670040938707C0216713070708A2
:102A5000558F98C305A0131709014183E177938728
:102A60000708D98F139707014183B7670040938701
:102A700007C098C3B7670040938707C09C43C2074D
:102A8000C18313F7070393070002E316F7FC05A0C1
:102A9000139704014183E17793870708D98F139730
:102AA00007014183B7670040938707C098C3B767A2
:102AB0000040938707C09C43C207C1833E878D6750
:102AC0007D8F8967E316F7FC83D7A186C207C18390
:102AD000C18B639A0714B7670040938707C09C4374
:102AE000C207C183BE86B7670040938707C02567CA
:102AF0001307F7F0758F98C3EFF05F9FB76700403B
:102B0000938707C09C43C207C1833E87A56793870D
:102B1000F7FB3379F700B7670040938707C09C4302
:102B2000C207C1833E87B1679387F7F8B374F70094
:102B300083D741861397070141838567F98FC207C1
:102B4000C18399C38567BD8C83D7418613970701DD
:102B500041838967F98FC207C18399C38967BD8C97
:102B600083D76186C207C183C18BC207C18399C362
:102B70001349090183D76186C207C18393F707020E
:102B8000C207C18399C31349090293170901C1837D
:102B9000B3E6F400B7670040938707C021671307C7
:102BA0000708558F98C305A0131709014183E177E2
:102BB00093870708D98F139707014183B7670040B0
:102BC000938707C098C3B7670040938707C09C43AB
:102BD000C207C18393F7070303D761864207418386
:102BE000E394E7FC05A0139704014183E177938701
:102BF0000708D98F139707014183B7670040938770
:102C000007C098C3B7670040938707C09C43C207BB
:102C1000C1833E878D67F98F03D741864207418381
:102C2000E393E7FCD9A6B7670040938707C09C43AE
:102C3000C207C1832317F4FE8357E4FEC207C18392
:102C40003E87856793870780F98F638A0714B76784
:102C50000040938707C09C43C207C183BE86B76705
:102C60000040938707C005671307F7F8758F98C36F
:102C7000EFF0CFF6B7670040938707C09C43C207C9
:102C8000C1833E87A5679387F7FB3379F700B76762
:102C90000040938707C09C43C207C1833E87B1674A
:102CA0009387F7F8B374F70083D74186139707012A
:102CB00041838567F98FC207C18399C38567BD8C3E
:102CC00083D741861397070141838967F98FC2072C
:102CD000C18399C38967BD8C83D76186C207C183CD
:102CE000C18BC207C18399C31349090183D7618688
:102CF000C207C18393F70702C207C18399C313496F
:102D0000090293170901C183B3E6F400B7670040D5
:102D1000938707C0216713070708558F98C305A03D
:102D2000131709014183E17793870708D98F139718
:102D300007014183B7670040938707C098C3B7670F
:102D40000040938707C09C43C207C18393F70703E2
:102D500003D7618642074183E394E7FC05A01397FC
:102D600004014183E17793870708D98F13970701FF
:102D70004183B7670040938707C098C3B767004097
:102D8000938707C09C43C207C1833E878D67F98F35
:102D900003D7418642074183E393E7FCB9A48357F5
:102DA000E4FEC207C183C207C18763D30722B767A6
:102DB0000040938707C09C43C207C183BE86B767A4
:102DC0000040938707C005671307F7F8758F98C30E
:102DD000EFF08FFBB7670040938707C09C43C207A3
:102DE000C1833E87A5679387F7FB3379F700B76701
:102DF0000040938707C09C43C207C1833E87B167E9
:102E00009387F7F8B374F70083D7418613970701C8
:102E100041838567F98FC207C18399C38567BD8CDC
:102E200083D741861397070141838967F98FC207CA
:102E3000C18399C38967BD8C83D76186C207C1836B
:102E4000C18BC207C18399C31349090183D7618626
:102E5000C207C18393F70702C207C18399C313490D
:102E6000090293170901C183B3E6F400B767004074
:102E7000938707C0216713070708558F98C305A0DC
:102E8000131709014183E17793870708D98F1397B7
:102E900007014183B7670040938707C098C3B767AE
:102EA0000040938707C09C43C207C18393F7070381
:102EB00003D7618642074183E394E7FC05A013979B
:102EC00004014183E17793870708D98F139707019E
:102ED0004183B7670040938707C098C3B767004036
:102EE000938707C09C43C207C1833E878D67F98FD4
:102EF00003D7418642074183E393E7FCFDA083C7E4
:102F0000018513972700B7670040938707C0BA97DA
:102F10009C43C207C1832317F4FE8357E4FEC20714
:102F2000C183C207C18763D8070483C7018513978C
:102F30002700B7670040938707C0BA979C43C20732
:102F4000C183BE8683C7018513972700B7670040FA
:102F5000938707C0BA9705671307F7F8758F98C36B
:102F600083C70185FD17370700201307471A8A0713
:102F7000BA979C4382978357E4FEC207C18393F7B5
:102F80000708B9C783C7018513972700B7670040B3
:102F9000938707C0BA979C43C207C183BE8683C785
:102FA000018513972700B7670040938707C0BA973A
:102FB00025671307F7F0758F98C383C70185FD1741
:102FC00037070020130787188A07BA979C43829710
:102FD000B7670040938747C49C43C207C1832395CA
:102FE000F186C207C187E3CB079AF2406244D2441C
:102FF000424905618280397106DE22DC8000232689
:1030000004FEB7670040938707C59C43C207C1838E
:103010003E87B73700209907BA9786079843C1675C
:10302000938707C0F98F03D781866382E704B76768
:103030000040938707C5944393970601C1833E8759
:10304000B73700209907BA978607984383D78186B8
:103050003E86C167938707C0F18FC206C18236865C
:10306000B73600209906B2968606D98F9CC2B767FC
:103070000040938747C49C431397070141832395DE
:10308000E18683D7A186C207C18393F7072003D7C0
:10309000C185F98F95C3B7670040938747C44167DF
:1030A0001307F7DF98C383C7C18693F7F70F850728
:1030B00013F7F70F2386E18683D7A186C207C18362
:1030C0003E87A167F98F03D7C185F98F99C3EFF0C8
:1030D000DF8B83D7A186C207C18393F7074003D74D
:1030E000C185F98F99CFB7670040938747C441677F
:1030F0001307F7BF98C3B70700209387071CDC436B
:10310000829783D7A186C207C1833E878967F98FDB
:1031100003D7C185F98F81CBB7670040938747C438
:1031200039677D1798C383D7A186C207C1833E87BD
:103130008567F98F03D7C185F98F99CBB7670040B1
:10314000938747C43D677D1798C30145EF00904AB8
:1031500083D7A186C207C1833E878567938707808F
:10316000F98F03D7C185F98F85C783C7818293F70C
:10317000F70F81C7EF00302D21A00945EF009047E0
:10318000B7670040938747C43D671307F77F98C32D
:1031900083D7A186C207C18393F7071003D7C185E0
:1031A000F98F63800716B7670040938747C441676C
:1031B0001307F7EF98C3B7670040938787C49C4312
:1031C000C207C18763DA071283A701871387170035
:1031D00023A8E18603A701878D4763F1E712B7674C
:1031E0000040938707C49C43C207C183A18B6397A8
:1031F0000710B7670040938707C49C43C207C18389
:103200003E8723AAE186232604FE15A88327C4FE51
:1032100013972700B7670040938707C0BA979C436E
:10322000C207C1833E878327C4FE8A07C117A297BE
:1032300023AEE7FC8327C4FE85072326F4FE03277D
:10324000C4FE9D47E3F4E7FC83A7418713E717001B
:1032500023AAE18683A74187139707014183B767B4
:103260000040938707C498C383A7418713F7E7FFFC
:1032700023AAE18683A74187139707014183B76794
:103280000040938707C498C30100B7670040938745
:1032900047C49C43C207C18393F70740FDD7B76774
:1032A0000040938747C441671307F7BF98C323269D
:1032B00004FE1DA88327C4FE8A07C117A29783A70F
:1032C000C7FD93960701C1828327C4FE1397270089
:1032D000B7670040938707C0BA97368798C383279C
:1032E000C4FE85072326F4FE0327C4FE9D47E3F3AF
:1032F000E7FC23A8018619A023A801861D45EF003D
:10330000702F0100F250625421618280397122DEF7
:1033100080002326A4FCAE8732872315F4FCBA87ED
:103320002314F4FC835784FC850785872322F4FE4D
:103330000357A4FCB7370020BA9786072324F4FE6E
:10334000832744FE2326F4FEB1A88327C4FC9C23D4
:103350002320F4FE8327C4FC85072326F4FC83275F
:10336000C4FC9C23A207032704FED98F232EF4FC60
:10337000832784FE138727002324E4FE0327C4FD4C
:10338000420741839AA3832784FE89072324F4FEFE
:103390008327C4FC85072326F4FC8327C4FEFD177E
:1033A0002326F4FE8327C4FECDF3010001007254EE
:1033B00021618280797122D60018232EA4FCAE8769
:1033C0003287231DF4FCBA87231CF4FC835784FD49
:1033D000850785872322F4FE0357A4FDB737002015
:1033E000BA9786072324F4FE832744FE2326F4FE9F
:1033F00025A8832784FE138747002324E4FE9443F3
:103400008327C4FD13871700232EE4FC13970601BE
:1034100041839AA38327C4FD8507232EF4FC8327C9
:10342000C4FEFD172326F4FE8327C4FEF9F3010032
:103430000100325445618280011122CE0010938731
:1034400081912326F4FE8327C4FEBC2781C715473C
:1034500023A0E1880100724405618280411122C6E7
:103460000008114723A0E188010032444101828015
:10347000411122C6000801003244410182804111FD
:1034800022C600080100324441018280011122CE8F
:10349000001083A741859C2313F7F70793071002B9
:1034A0006316F70283A741859833A5476310F70297
:1034B000231704FE31A08357E4FE85072317F4FE8B
:1034C0000357E4FE9307F003E3F7E7FE01007244BD
:1034D00005618280411122C6000801003244410189
:1034E0008280011106CE22CC001083A7418523855E
:1034F0000700EF00A06FA30704FE89A08347F4FE36
:1035000013972700B7670040938707C0BA979C437B
:10351000C207C183BE868347F4FE13972700B767AF
:103520000040938707C0BA9705671307F7F0758FB8
:1035300098C38347F4FE8507A307F4FE0347F4FE10
:103540009D47E3FDE7FAB7670040938747C4130739
:10355000F00F98C3EF10801A23A001888145014520
:10356000EFD01FD45145EFD04F9585450545EFD09D
:103570003FD30100F240624405618280411106C6DA
:1035800022C4000883A741852385070083A74185BE
:10359000156713070784783398B783A74185A385F8
:1035A00007000145EF00701A930500200145EF0068
:1035B000501CC1450145EF007022930500040145F0
:1035C000EF003065930500080145EF00905F01456D
:1035D000EF00504AB70700209387071C83C7C70234
:1035E000BE850145EF00D0730145EF00703CB76721
:1035F0000040938707C09C43C207C1833E87916701
:10360000F98F95C7B7670040938707C09C43C207EF
:10361000C1833E8785679387F7F07D8FB167938776
:1036200007085D8FB7670040938707C098C3B767E7
:103630000040938707C09C43C207C18393F70704E8
:1036400095C7B7670040938707C09C43C207C183F3
:103650003E8785679387F7F07D8FA1679387070C77
:103660005D8FB7670040938707C098C393050060DC
:103670000545EF00101081450545EF003016930514
:10368000000C0545EF00F058930500040545EF00D8
:1036900030698D650545EF00D022B76700409387FC
:1036A00047C09C43C207C18393F7070495C7B76718
:1036B0000040938747C09C43C207C1833E8785670C
:1036C0009387F7F07D8FA1679387070C5D8FB767AE
:1036D0000040938747C098C3B7670040938747C0AF
:1036E0009C43C207C1833E879167F98F95C7B7672F
:1036F0000040938747C09C43C207C1833E878567CC
:103700009387F7F07D8FB167938707085D8FB76761
:103710000040938747C098C3930500600945EF00B8
:103720005005930500100945EF00B04993050002CC
:103730000945EF00B00A81450945EF009018B767C9
:103740000040938787C09C43C207C18393F7070457
:1037500095C7B7670040938787C09C43C207C18362
:103760003E8785679387F7F07D8FA1679387070C66
:103770005D8FB7670040938787C098C3B7670040E5
:10378000938787C09C43C207C1833E879167F98FA7
:1037900095C7B7670040938787C09C43C207C18322
:1037A0003E8785679387F7F07D8FB167938707081A
:1037B0005D8FB7670040938787C098C30145EFE0EE
:1037C0007FEA054723A0E1880100B240224441017D
:1037D0008280011106CE22CC0010AA872317F4FEA6
:1037E0000357E4FEB7070020938507243A85EFE0EE
:1037F0004FBEAA873E85F240624405618280011176
:1038000006CE22CC0010AA872317F4FE0357E4FE4D
:10381000938501813A85EFE0CFBBAA873E85F240D0
:10382000624405618280797106D622D40018AA8785
:10383000231FF4FC83A74185BC33A307F4FE034791
:10384000F4FE914763F4E70081470DA08347F4FE3F
:1038500013973700B7070020938747213E97835778
:10386000E4FDBA853E85EFE0CFB6AA873E85B2502B
:10387000225445618280797106D622D40018AA8725
:10388000231FF4FC83A74185DC33A307F4FE034721
:10389000F4FE894763F4E700814739A88347F4FEC3
:1038A00013973700938781813E978357E4FDBA854C
:1038B0003E85EFE00FB2AA873E85B25022544561A3
:1038C0008280797106D622D40018AA87231FF4FCBF
:1038D00083A74185DC33A307F4FE0347F4FE894741
:1038E00063F4E700814739A88347F4FE1397370054
:1038F000938701823E978357E4FDBA853E85EFE0CA
:103900004FADAA873E85B250225445618280011195
:1039100022CE0010AA872E87A307F4FEBA872307BA
:10392000F4FE8347E4FE99C3894709A80347F4FEE0
:10393000854763F4E700894711A081473E857244BB
:1039400005618280797106D622D40018AA87A30F58
:10395000F4FC83A741859C332324F4FE232604FE34
:10396000232204FE83A741859C2313F7F70785478D
:103970006314F70683A74185BC23A301F4FE034724
:1039800034FE930720026318F700916793876787D7
:103990002326F4FE21A8034734FE93071002631781
:1039A000F70091679387278C2326F4FE8327C4FEB4
:1039B00095C383A74185032744FE42074183BAABE1
:1039C00083A741850327C4FE98CF8327C4FE014502
:1039D00082976DA0894765A083A741859C2313F733
:1039E000F70793071002631BF708032784FE854738
:1039F000631EF70083A74185130700049AAB83A7D2
:103A000041851167130707B298CF8DA8032784FE5D
:103A10008947631DF70083A7418505479AAB83A7B4
:103A200041851167130707B898CF89A8032784FE3B
:103A30008D47631DF70083A7418505479AAB83A790
:103A400041851167130767BB98CF0DA8032784FE34
:103A5000A5476313F70203A7418583A741857A230E
:103A60009AAB83A741851167130707B598CF83A742
:103A700041850D4798A719A0894711A081473E8528
:103A8000B250225445618280797122D60018AA87EB
:103A9000A30FF4FC83A741859C332326F4FE83A760
:103AA0004185DC33A305F4FE83A741859C2313F7EE
:103AB000F707930710026310F7060327C4FEA94710
:103AC0006313F7020347B4FE894763F4E7008947AD
:103AD000A1A083A741858346B4FEB823938781873D
:103AE000B69798A30DA80327C4FEAD476313F7024A
:103AF0000347B4FE894763F4E700894731A883A7E9
:103B000041858346B4FEB8339387C187B69798A39F
:103B100019A0894711A081473E85325445618280B2
:103B2000797122D60018AA87231FF4FC83A7418548
:103B3000DC33A307F4FE0347F4FE854763F4E70094
:103B4000814719A09387818D3E85325445618280DB
:103B5000797122D60018AA87231FF4FC83A7418518
:103B6000DC33A307F4FE0347F4FE854763F4E70064
:103B7000814719A09387818D3E85325445618280AB
:103B8000797122D60018AA87231FF4FC83A74185E8
:103B9000DC33A307F4FE0347F4FE854763F4E70034
:103BA000814731A00347F4FE93878187BA973E850A
:103BB000325445618280797122D60018AA87231F6A
:103BC000F4FC83A74185DC33A307F4FE0347F4FE2E
:103BD000894763F4E700814731A00347F4FE9387E8
:103BE000C187BA973E85325445618280011122CE49
:103BF000001085472317F4FEB7670040938707C47A
:103C00000357E4FE98C3239E018403D7C185B76799
:103C10000040938707C498C3B7670040938747C4A1
:103C200023A007000967130707C0239EE18403D779
:103C3000C185B7670040938707C498C381473E8515
:103C4000724405618280011106CE22CC0010232629
:103C500004FEB7670040938707C49C432315F4FE16
:103C6000232604FE15A88327C4FE13972700B767F1
:103C70000040938707C0BA979C43C207C183BE86A2
:103C8000138781D48327C4FE8A07BA9794C38327F6
:103C9000C4FE85072326F4FE0327C4FE9D47E3F4F4
:103CA000E7FC8357A4FE93E707402315F4FEB767AC
:103CB0000040938707C40357A4FE98C38357A4FE0C
:103CC00093E717002315F4FEB7670040938707C4F6
:103CD0000357A4FE98C38357A4FEF99B2315F4FE53
:103CE000B7670040938707C40357A4FE98C3010039
:103CF000B7670040938747C49C43C207C18393F7CB
:103D00000740FDD7B7670040938747C44167130753
:103D1000F7BF98C3232604FE1DA8138781D48327E9
:103D2000C4FE8A07BA979C4393960701C1828327F2
:103D3000C4FE13972700B7670040938707C0BA9760
:103D4000368798C38327C4FE85072326F4FE0327FE
:103D5000C4FE9D47E3F3E7FC8357A4FE93E7870087
:103D60002315F4FEB7670040938707C40357A4FEEA
:103D700098C3B7670040938707C49C432315F4FE9C
:103D80008357A4FE93E747002315F4FEB76700406E
:103D9000938707C40357A4FE98C3EFD0AFC50100B3
:103DA000F240624405618280011106CE22CC0010EF
:103DB000B7670040938707C49C432317F4FE8357DB
:103DC000E4FEED9B2317F4FEB7670040938707C41A
:103DD0000357E4FE98C3EFD02FC3B7670040938723
:103DE00007C43167130707F098C30100F24062442B
:103DF00005618280797106D622D40018232EA4FC96
:103E00000327C4FD9D476307F70093874188032775
:103E1000C4FD98C3938741889C431547636AF71094
:103E20001397270095679387478CBA979C4382879F
:103E300083A7C18881EBEFF03FF79387418819474B
:103E400098C3FDA893874188154798C3D5A8EFF07C
:103E5000BFF593874188114798C3054723A6E1889A
:103E6000C5A0938741880947D8A3938741880D4708
:103E700098C3F9A093874188DC2393F7F70FFD17C8
:103E800013F7F70F93874188D8A393874188DC23E2
:103E900093F7F70FDDE393874188114798C371A823
:103EA000B7670040938707C49C432317F4FE8357EA
:103EB000E4FE93E707012317F4FEB76700409387FA
:103EC00007C40357E4FE98C393874188154798C3F6
:103ED000938741882947D8A3A5A093874188DC23ED
:103EE00093F7F70FFD1713F7F70F93874188D8A3C0
:103EF00093874188DC2393F7F70FB1E3B76700405E
:103F0000938707C49C432317F4FE8357E4FEBD9BAD
:103F10002317F4FEB7670040938707C40357E4FEF6
:103F200098C393874188194798C323A6018801A89D
:103F300093874188194798C321A0010011A001006F
:103F40000100B250225445618280011122CE00103E
:103F5000AA872317F4FE8356E4FEB76700409387D1
:103F600007C541676117758F98C3010072440561E9
:103F70008280011122CE0010AA872E87A307F4FEAB
:103F8000BA872316F4FE8347F4FE13972700B7671A
:103F90000040938707C0BA979C4313970701418756
:103FA000E5779387F798F98F139707014187831770
:103FB000C4FED98FC207C18793960701C182834788
:103FC000F4FE13972700B7670040938707C0BA979E
:103FD000368798C30100724405618280011122CEA8
:103FE00026CC0010AA872E87A307F4FEBA872316D3
:103FF000F4FE8347F4FE13972700B76700409387CA
:1040000007C0BA979C43139707014183E5779387CD
:10401000F7FBF98F93940701C1808357C4FEC18BCE
:10402000C207C18391C793C7040193940701C1805C
:104030008357C4FE93F70702C207C18391C793C792
:10404000040293940701C180E17793870708C58F25
:1040500093960701C1828347F4FE13972700B76741
:104060000040938707C0BA97368798C31DA0E177B1
:1040700093870708C58F93960701C1828347F4FE93
:1040800013972700B7670040938707C0BA97368712
:1040900098C38347F4FE13972700B76700409387C0
:1040A00007C0BA979C43C207C18313F7070383571E
:1040B000C4FEE31EF7FA010001007244E244056108
:1040C0008280011122CE26CC0010AA872E87A3075A
:1040D000F4FEBA872316F4FE8347F4FE13972700F5
:1040E000B7670040938707C0BA979C4313970701AF
:1040F0004183F1779387F7F8F98F93940701C18093
:104100008357C4FE3E878567F98FC207C18391C775
:104110008567A58F93940701C1808357C4FE3E87AE
:104120008967F98FC207C18391C78967A58F939467
:104130000701C180E17793870708C58F9396070130
:10414000C1828347F4FE13972700B7670040938727
:1041500007C0BA97368798C31DA0E17793870708F1
:10416000C58F93960701C1828347F4FE13972700FA
:10417000B7670040938707C0BA97368798C38347CD
:10418000F4FE13972700B7670040938707C0BA97DC
:104190009C43C207C1833E878D677D8F8357C4FED2
:1041A000E31DF7FA010001007244E24405618280D8
:1041B000011122CE26CC0010AA87A307F4FE834764
:1041C000F4FE13972700B7670040938707C0BA979C
:1041D0009C43139707014183F1779387F7F8F98F91
:1041E00093940701C1808567A58F93940701C180CF
:1041F0008967A58F93940701C180E17793870708AA
:10420000C58F93960701C1828347F4FE1397270059
:10421000B7670040938707C0BA97368798C31DA039
:10422000E17793870708C58F93960701C18283477B
:10423000F4FE13972700B7670040938707C0BA972B
:10424000368798C38347F4FE13972700B76700406B
:10425000938707C0BA979C43C207C1833E878D6787
:104260007D8F8D67E31EF7FA010001007244E2447E
:1042700005618280011122CE0010AA87A307F4FEF7
:104280008347F4FE13972700B7670040938707C062
:10429000BA979C4313970701418785679387F7E097
:1042A000F98F139707014187E17793870708D98F23
:1042B000C207C18793960701C1828347F4FE139713
:1042C0002700B7670040938707C0BA97368798C31F
:1042D0000100724405618280011122CE0010AA877C
:1042E000A307F4FE8347F4FE13972700B767004047
:1042F000938707C0BA979C43C207C1833E879167E3
:10430000F98FB1C38347F4FE13972700B7670040C6
:10431000938707C0BA979C43C207C1833E878567CE
:104320009387F7F07D8FB16793870708B366F7002F
:104330008347F4FE13972700B7670040938707C0B1
:10434000BA97368798C301007244056182800111D3
:1043500022CE0010AA87A307F4FE8347F4FE13972A
:104360002700B7670040938707C0BA979C43C207EE
:10437000C18393F70704B1C38347F4FE1397270063
:10438000B7670040938707C0BA979C43C207C183B1
:104390003E8785679387F7F07D8FA1679387070C2A
:1043A000B366F7008347F4FE13972700B767004012
:1043B000938707C0BA97368798C301007244056196
:1043C0008280011122CE0010AA872E87A307F4FE57
:1043D000BA872316F4FE8357C4FE8583C207C183C0
:1043E000BE86B7670040938707C59C43C207C18359
:1043F0003E878347F4FE8E073E97B7370020BA9773
:1044000086073E87939716001CC30100724405611E
:104410008280011122CE0010AA872E87A307F4FE06
:10442000BA872316F4FE8357C4FE8583C207C1836F
:10443000BE86B7670040938707C59C43C207C18308
:104440003E878347F4FE8E073E97B73700209107DB
:10445000BA9786073E87939716001CC301007244E3
:1044600005618280011122CE0010AA87A307F4FE05
:10447000B7670040938707C59C43C207C1833E8747
:104480008347F4FE8E073E97B7370020BA9786071A
:104490009C43C207C1833E8572440561828001113D
:1044A00022CE0010AA87A307F4FEB76700409387C7
:1044B00007C59C43C207C1833E878347F4FE8E072E
:1044C0003E97B73700209107BA9786079C43C207EB
:1044D000C1833E85724405618280011122CE0010A5
:1044E000AA872E87A307F4FEBA872316F4FEB767C0
:1044F0000040938707C59C43C207C1833E8783471B
:10450000F4FE8E073E97B73700208907BA978607D3
:104510003E878357C4FE1CC301007244056182803C
:10452000797122D60018AA872E87A30FF4FCBA87C8
:10453000231EF4FCB7670040938707C59C43C2075E
:10454000C1833E878347F4FD8E073E97B73700202F
:104550009907BA9786072324F4FE0357C4FD9307EF
:10456000E00363FBE7028357C4FD95832317F4FE42
:104570008357C4FDFD8B91E78357E4FEFD17231796
:10458000F4FE8357E4FE1397A700A167D98F3E87F7
:10459000832784FE98C335A08357C4FD85832317E2
:1045A000F4FE8357C4FD858B91C78357E4FE8507CE
:1045B0002317F4FE8357E4FE1397A700832784FE96
:1045C00098C38347F4FDDDE3B70700209387071CFA
:1045D00003C7C7029307E00363FAE704B7070020A5
:1045E0009387071C83C7C702958393F7F70F23169A
:1045F000F4FEB70700209387071C83C7C702FD8B13
:1046000091E78357C4FEFD172316F4FE8357C4FEBB
:10461000AA07139707014187E177D98FC207C1879E
:104620001397070141832394E18689A0B7070020EF
:104630009387071C83C7C702858393F7F70F231659
:10464000F4FEB70700209387071C83C7C702858B3A
:1046500091C78357C4FE85072316F4FE8357C4FE13
:10466000AA071397070141832394E186010032547E
:1046700045618280011122CE0010AA87A307F4FEB3
:10468000B7670040938707C59C43C207C1833E8735
:104690008347F4FE8E073E97B73700209907BA97F5
:1046A00086079C43C207C18393F7F73FC207C183C4
:1046B0003E85724405618280797122D60018AA87EE
:1046C000231FF4FC8357E4FDA307F4FE8357E4FDA6
:1046D000A183C207C1831397070141878347F4FE73
:1046E000A207C207C187D98FC207C1872316F4FE6C
:1046F0008357C4FE3E85325445618280411122C6F3
:104700000008B7670040938747C423A0070071776C
:10471000130707F0239EE18403D7C185B7670040E4
:10472000938707C498C381473E8532444101828004
:10473000011106CE22CC0010AA872324B4FE232226
:10474000C4FEA307F4FE8347F4FE93F7F70793F73D
:10475000F70F3E85EFF01FD1AA873E87832744FEDF
:10476000C207C1833E86BA85032584FEEFE01FBAE7
:104770008347F4FE93F7F70793F7F70F032744FEF9
:1047800042074183BA853E85EFF03FD581473E859C
:10479000F24062440561828001A097C1FF1F9381AE
:1047A000E12917E1FF1F1301E105170500001305BB
:1047B000251397C5FF1F9385E5841386418363FA0C
:1047C000C5008322050023A0550011059105E3EAE9
:1047D000C5FE13854183938581D66377B500232079
:1047E00005001105E36DB5FEFD42739002BC8D42DC
:1047F00073904280930280087390023097C2FFFF4B
:104800009382828093E232007390523097C2FFFF0E
:10481000938242457390123473002030AA87982304
:10482000850775FF3385A7407D1582801201100131
:1048300000000040130910320001010203010000D2
:10484000090229000101038032090400000203006B
:104850000000092111010001223F0007050103406A
:10486000000A0705820340000A000000160330001A
:104870003100320033003400350036003700380094
:104880003900000005010906A101050719E029E723
:1048900015002501750195088102950175088103B0
:1048A0009505750105081901290591029501750302
:1048B00091039506750815002565050719002965FA
:1048C0008100C000303E00004E3E0000623E00000D
:0C48D000743E0000A03E0000DA3E000034
:1048DC00536F6C646572696E6769726F6E2073706A
:1048EC006220323032350000000000000000000071
:1048FC0000000000000000000000000000000000AC
:10490C00000000000000000000000000000000009B
:10491C0050554247204B6579626F6172640000000C
:10492C00000000000000000000000000000000007B
:10493C00000000000000000000000000000000006B
:10494C00000000000000000000000000000000005B
:10495C000E037700630068002E0063006E000000F9
:10496C00000000000000000000000000000000003B
:10497C00000000000000000000000000000000002B
:10498C00000000000000000000000000000000001B
:10499C00000000000000000000000000000000000B
:1049AC0000000000000000000000000000000000FB
:1049BC0000000000000000000000000000000000EB
:1049CC0000000000000000000000000000000000DB
:1049DC00000000002803430048003300320056005A
:1049EC003200300078002D00430075007300740015
:1049FC006F006D00200048004900440000000000DA
:104A0C00000000000000000000000000000000009A
:104A1C00000000000000000000000000000000008A
:104A2C00000000000000000000000000000000007A
:104A3C00000000000000000000000000000000006A
:104A4C00000000000000000000000000000000005A
:104A5C0000000000000000000A270000922800005F
:104A6C000A2700000A2700000A2700000A27000076
:104A7C000A270000BE2700000A2700000A270000B2
:104A8C000A2700000A2700000A2700000A27000056
:104A9C00E23400007C3500008C340000D43400007B
:104AAC0044390000883A00000E390000D23700006B
:104ABC00FE37000026380000000000004000000017
:104ACC000A270000383400000A2700000A270000DB
:104ADC000A2700007E3400000A2700007034000012
:104AEC005C340000680200200400000080000020FC
:104AFC000E00000004010020280000006C4800009B
:104B0C00160000000000000004000000030100007B
:104B1C002C48000012000000404800002900000052
:104B2C00844800003F0000005248000009000000CB
:0C4B3C0001000000000000000403090458
:00000001FF
